:020000040800F2
:100000000050002011BB0008BD9F0008BF9F0008E2
:10001000C19F0008C39F0008C59F000800000000A2
:10002000000000000000000000000000C79F000862
:10003000C99F000800000000CB9F0008CD9F00086A
:1000400059BB000859BB000859BB000859BB000840
:1000500059BB000859BB000859BB000859BB000830
:1000600059BB000859BB000859BB000859BB000820
:1000700059BB000859BB0008D59F0008E59F000840
:1000800059BB000859BB000859BB000859BB000800
:1000900059BB000859BB000859BB000859BB0008F0
:1000A00059BB000859BB000859BB000859BB0008E0
:1000B00059BB000859BB000859BB000859BB0008D0
:1000C00059BB000859BB000859BB000859BB0008C0
:1000D00059BB0008F59F000859BB000859BB000830
:1000E00059BB000859BB000859BB000800000000BC
:1000F0000000000000000000000000000000000000
:0C01000000000000000000005FF808F1A3
:100110000348044B834202D0034B03B11847704796
:10012000B8090020B8090020000000000548064971
:100130000B1AD90F01EBA301491002D0034B03B1F5
:1001400018477047B8090020B809002000000000D7
:1001500010B5064C237843B9FFF7DAFF044B13B10F
:100160000448AFF300800123237010BDB8090020BC
:1001700000000000C8BD000808B5044B1BB10449CD
:100180000448AFF30080BDE80840CFE7000000005E
:10019000BC090020C8BD000881F0004102E000BF9A
:1001A00083F0004330B54FEA41044FEA430594EA37
:1001B000050F08BF90EA020F1FBF54EA000C55EA72
:1001C000020C7FEA645C7FEA655C00F0E2804FEA43
:1001D0005454D4EB5555B8BF6D420CDD2C4480EA25
:1001E000020281EA030382EA000083EA010180EA55
:1001F000020281EA0303362D88BF30BD11F0004FA3
:100200004FEA01314FF4801C4CEA113102D04042D8
:1002100061EB410113F0004F4FEA03334CEA133313
:1002200002D0524263EB430394EA050F00F0A7802B
:10023000A4F10104D5F1200E0DDB02FA0EFC22FA26
:1002400005F2801841F1000103FA0EF2801843FA1A
:1002500005F359410EE0A5F120050EF1200E012A0B
:1002600003FA0EFC28BF4CF0020C43FA05F3C01849
:1002700051EBE37101F0004507D54FF0000EDCF1C2
:10028000000C7EEB00006EEB0101B1F5801F1BD36B
:10029000B1F5001F0CD349085FEA30004FEA3C0C6F
:1002A00004F101044FEA445212F5800F80F09A8065
:1002B000BCF1004F08BF5FEA500C50F1000041EB69
:1002C000045141EA050130BD5FEA4C0C404141EB6D
:1002D0000101013C28BFB1F5801FE9D291F0000F68
:1002E00004BF01460020B1FA81F308BF2033A3F117
:1002F0000B03B3F120020CDA0C3208DD02F1140C0E
:10030000C2F10C0201FA0CF021FA02F10CE002F148
:100310001402D8BFC2F1200C01FA02F120FA0CFC41
:10032000DCBF41EA0C019040E41AA2BF01EB04518A
:10033000294330BD6FEA04041F3C1CDA0C340EDC88
:1003400004F11404C4F1200220FA04F001FA02F3CB
:1003500040EA030021FA04F345EA030130BDC4F189
:100360000C04C4F1200220FA02F001FA04F340EA7E
:100370000300294630BD21FA04F0294630BD94F02F
:10038000000F83F4801306BF81F480110134013D16
:100390004EE77FEA645C18BF7FEA655C29D094EA87
:1003A000050F08BF90EA020F05D054EA000C04BF05
:1003B0001946104630BD91EA030F1EBF00210020F0
:1003C00030BD5FEA545C05D14000494128BF41F08F
:1003D000004130BD14F580043CBF01F5801130BDF3
:1003E00001F0004545F0FE4141F470014FF000007E
:1003F00030BD7FEA645C1ABF194610467FEA655C2F
:100400001CBF0B46024650EA013406BF52EA0335D0
:1004100091EA030F41F4002130BD00BF90F0000FBE
:1004200004BF0021704730B54FF4806404F13204FA
:100430004FF000054FF0000150E700BF90F0000FB3
:1004400004BF0021704730B54FF4806404F13204DA
:1004500010F0004548BF40424FF000013EE700BFAA
:1004600042004FEAE2014FEA31014FEA02701FBF3A
:1004700012F07F4393F07F4F81F06051704732F06C
:100480007F4208BF704793F07F4F04BF41F40021C3
:10049000704730B54FF4607401F0004521F0004121
:1004A0001CE700BF50EA010208BF704730B54FF0AB
:1004B00000050AE050EA010208BF704730B511F0AC
:1004C000004502D5404261EB41014FF4806404F1E4
:1004D00032045FEA915C3FF4D8AE4FF003025FEA6A
:1004E000DC0C18BF03325FEADC0C18BF033202EBEE
:1004F000DC02C2F1200300FA03FC20FA02F001FA48
:1005000003FE40EA0E0021FA02F11444BDE600BFEA
:100510004FEA410212F5001215D211D56FF478732B
:10052000B3EB625212D94FEAC12343F0004343EACE
:10053000505311F0004F23FA02F018BF40427047A9
:100540004FF00000704750EA013005D111F0004033
:1005500008BF6FF0004070474FF00000704700BFC9
:1005600003685A004CBF43F0004323F00043184493
:10057000704700BF2DE9F84329B34F1E04461546C6
:100580003E464FF0000808EB060101EBD17149101F
:1005900004EBC1094846FFF7E3FF0346C8000830F3
:1005A0008F42204409D0AB4209D8FFF7D9FF013868
:1005B000A8420AD201F10108E5E7AB4205D9884516
:1005C00001D04E1EDFE74FF000094846BDE8F88332
:1005D000012807D0022807D0044B00280CBF18467A
:1005E000002070470248704702487047950C000889
:1005F000990C00089D0C000830B5244B044683B0CC
:100600008D1E3BB3284601A9AFF30080E8B10199E4
:100610002A46FFF7AFFF0146B8B1FFF7A1FF4B68CD
:10062000A064012B2DD0002B26DB081DFFF798FFBF
:100630000023C4E913030368002B12DBFFF790FFCC
:1006400003460020236103B030BD0023092023614D
:1006500003B030BD0E4B0F491846C91AC91001919D
:10066000D6E7C3F30360FFF7B3FF0028206114BF90
:100670000020092003B030BD0123081DC4E9130385
:10068000D9E7002305202361DDE700BF000000005B
:1006900038DE000870DF0008036810B5DA0704468A
:1006A00006D49B0700F1480009D500F041FC2368FF
:1006B000590709D51A070ED5DB0613D510BD00F072
:1006C0002FFC23685907F5D404F1D00000F038FC62
:1006D00023681A07F0D404F5A87000F039FC2368E9
:1006E000DB06EBD404F5E870BDE8104000F074BC04
:1006F0000346006800B11844704700BF09207047E6
:10070000704700BF70B504460E462046316CFFF7B7
:1007100073FF054688B9326C21466261012032467A
:10072000236998470828F0D0072806D12846316C5D
:10073000FFF7E6FF301D00F0E7FB00F059FE00BFB9
:100740002DE9F04706464FF0000CADF5727D03AD84
:100750000C1D91460FCC0FC50FCC0FC50FCC0FC58C
:1007600094E80F00F768D6F8188085E80F0002AD0E
:10077000C5F800C021E02B6C4FF4F072736129467C
:100780007AA801F03BF9314634697AAA5046A0476D
:10079000889BCDE9005804466B644946334632468F
:1007A0000120B8470346F0B94FF4F07228467AA901
:1007B000994601F023F9082C1BD13046296CFFF72C
:1007C0001BFF09F1090904465FFA89FA0028D2D013
:1007D000AB6B3246CDE9005801206B644AF0100142
:1007E0003346B84700B1092420460DF5727DBDE8B7
:1007F000F087072CF7D14846296CFFF781FF03A843
:1008000000F082FB406C70474FF0FF3CF0B5CB6BC3
:10081000F9B00B640E1D01AC0F4605460FCE0FC498
:100820000FCE0FC40FCE0FC496E80F0084E80F0060
:10083000CDF800C006E06A4629462B69984708288B
:10084000044608D128461099FFF7D6FE0028F2D0BA
:10085000092079B0F0BD6846FFF71EFF062CF7D1DE
:1008600039462846FFF74EFF30B4DD6BC160826128
:1008700019461D64002230BC62E700BF70B54369B1
:10088000C6680B64AEB90A46036904460D460146C4
:1008900002209847072805D008280FD1294620466E
:1008A000FFF730FF3046296CFFF72AFF281D00F0C4
:1008B0002BFB0122FFF744FF00F09AFD00F098FDAA
:1008C000C2682AB110B4CC6B00220C6410BC37E7AC
:1008D0009AE700BF704700BF836801460BB1012053
:1008E00018477047012912D009D873B90F2A0CD8BC
:1008F00000EB820042681846009B1A60704703397B
:10090000012994BF01200220704702207047084649
:10091000704700BF002310B584B003AC0A460094B2
:100920001946FFF7DFFF039804B010BD012912D06C
:1009300009D873B90F2A0CD8009900EB8202096814
:100940001846516070470339012994BF01200220E5
:100950007047022070470846704700BF30B500233B
:100960000D4685B003AC039219462A460094FFF762
:10097000DDFF05B030BD00BF4FF0FF3CF0B5D36BDD
:10098000ADF50F7D1364151D17AC07460E460FCD50
:100990000FC40FCD0FC40FCD0FC495E80F0084E82E
:1009A0000F00CDF858C012E00C2116A86A46FFF7D8
:1009B000D5FF314616A8B84778B969460820049B88
:1009C00016AA98470528044608D0092805D0684685
:1009D0002699FFF711FE0028E6D0092416A8FFF794
:1009E0005BFE20460DF50F7DF0BD00BF2DE9F04FF9
:1009F000CC6C174654F8042B89B00D461E4600F007
:100A000003080694002B79D00221130C8DF81D30B9
:100A10001204DBB204EB830405928DF81C102B6DDD
:100A2000B8F1020F08BFAC6B13F001030CD03846CD
:100A300005A900F06BFB18B9082009B0BDE8F08FDC
:100A4000092009B0BDE8F08FD4F800A0BAF1000F7A
:100A5000EDD0019300F008030293022E4AD0B4F8BF
:100A600000A0B4F802900434AA6C0F21384629F093
:100A7000010B9344FFF74EFF834539D82AF001025A
:100A80005A44824294BF002001204FEA490303F0F8
:100A900002030AF0010A43EA0A03012B49D0022BA0
:100AA00032D0002BCCD1B8F1000F02D0002840F09A
:100AB000CD800434D4F800A0BAF1000FCDD138466F
:100AC00005A900F023FB0028BAD1019B002BB3D06D
:100AD0000F213846FFF71EFF0E2102463846FFF76A
:100AE0003DFF38460F216A4AFFF738FF0720A8E785
:100AF0000020CAE7D4F804900834B5E703231202B3
:100B00000592ADF81C308AE7236823F0004BB8F15A
:100B1000000F45D128B1029A002A5CD0BBF1000F2A
:100B200074D0002B00DA04340BF1010B04EB8B04BE
:100B3000C0E7B8F1000F19D1B0B1D4E90023991C76
:100B40004FEAD2723FF47CAF05F1580101330491B2
:100B500000F09080201DFFF7CBFD04AB0146284636
:100B6000AFF3008000285BD10834A3E70D2138469D
:100B7000D5F82090FFF7CEFE8145F5D1AB6A9C42B7
:100B8000F2D12046FFF7ECFC0F2102463846FFF772
:100B9000E5FE38462A460021FFF7E0FE072050E731
:100BA0000D213846D5F82090FFF7B4FE814501D0DD
:100BB0002368B6E7AB6A9C42FAD104220021C5E95A
:100BC0000B12A318C5F828B06B6323688B4259DB5E
:100BD00001230193A8E705F15803CDF80C80914655
:100BE000B04604F1040A1E460EE050460496FFF794
:100BF0007FFD0022014604AB2846AFF3008009F1D7
:100C000001090AF1040AE0B9D945EED138460D21AF
:100C1000FFF780FE049B2862C5E90934062010E72F
:100C200081460D213846FFF775FEB9F1020F2862A3
:100C300025D12B46049A43F82C2F6B620620AC6218
:100C4000FFE646462368DDF80C806AE72046FFF79A
:100C500087FC02460434AC6328461446AFF3008098
:100C600000283FF4EDAE384622460F21FFF776FE0E
:100C70000720E6E638460D21FFF74CFE2862049B6C
:100C80006B62DBE70BF1010004EB80007AE700BF49
:100C9000000000000023A9E60123A7E60223A5E641
:100CA0002DE9F043064615461C46C3B0042900F260
:100CB000B280DFE801F09650B0270300002C40F02E
:100CC000AA80102A00F2A7800368D80600F1EB8002
:100CD00020AF384600F08AF900230120B26B00FAF9
:100CE00003F129421CBF52F8041B47F823100133BB
:100CF000042BF4D13846B26300F06EF9002043B003
:100D0000BDE8F083032C40F0868094B204EB1243DC
:100D1000102B4FEA12457ED803681F0700F1CB80E5
:100D200020AF384600F036F907EBC501B56B54B17A
:100D30000B4601EBC401E81AE4001A5843F8042BEF
:100D40008B42FAD125443846B56300F001F9002002
:100D500043B0BDE8F083012C4FEA124895B256D05B
:100D6000052C58D108EB0509B9F1200F53D8B8F17B
:100D70000F0F73D9A946002D40F08480B36B65B383
:100D800020AF4FF0000907EBC807043F03EBC50590
:100D900053F8041BAB4247F8041FF9D1B9F1000F17
:100DA0000FD06F464146102938BF102107EBC10113
:100DB000843903EBC90553F8040BAB4241F8040F27
:100DC000F9D1012C7FD0B8F10F0FB56342D9B9F139
:100DD000000F02D0684600F0B3F8002043B0BDE831
:100DE000F083C4B923460124826B371DA8B204FAEC
:100DF00003F101421CBF52F8041B47F823100133D2
:100E0000102BF4D115F40050E7D1B26304E008EBE5
:100E10000503102B03D9022043B0BDE8F083B8F1DD
:100E20000F0FF8D83368DA0706D5304623F00303EE
:100E300040F8483B00F078F820AF384600F074F8EE
:100E4000B36B002D9DD11D4604353846B56300F0C7
:100E500067F8C2E720A800F06BF8B8E7B9F1100F07
:100E60003FD9A9F110093368D90708D5304623F0D6
:100E7000010343F0020340F8483B00F05DF8B9F18C
:100E8000000F31D033685A071FD4B8F10F0F24D99F
:100E90006F46C8F11005384600F056F8002DB36BC8
:100EA00080DD20AF6FE723F01003336006F5E870B4
:100EB00000F09CF80CE723F00803036000F5A8702D
:100EC00000F068F82CE720AFBEE7304623F00403BB
:100ED00040F8D03B00F038F8D7E720A800F02CF815
:100EE000D6E74FF00009BEE7B8F10F0F3FF646AF67
:100EF00020AF384600F020F8B36B002D7FF441AFEF
:100F0000384600F015F868E700F1340191E8380040
:100F10009C46A6464CF8045D90E8FF0FE54600BDF0
:100F200090EC210B704700BF80EC210B704700BF95
:100F300090EC200B704700BF80EC200B704700BF87
:100F4000D0EC200B704700BFC0EC200B704700BFF7
:100F5000F0EC0201F0EC0211F0EC0221F0EC0231B5
:100F6000F0EC0241F0EC0251F0EC0261F0EC0271A5
:100F7000F0EC0281F0EC0291F0EC02A1F0EC02B195
:100F8000F0EC02C1F0EC02D1F0EC02E1F0EC02F185
:100F9000704700BFE0EC0201E0EC0211E0EC02213E
:100FA000E0EC0231E0EC0241E0EC0251E0EC0261E5
:100FB000E0EC0271E0EC0281E0EC0291E0EC02A1D5
:100FC000E0EC02B1E0EC02C1E0EC02D1E0EC02E1C5
:100FD000E0EC02F1704700BFB0FC0181B0FC019170
:100FE000B0FC01A1B0FC01B1704700BFA0FC0181C1
:100FF000A0FC0191A0FC01A1A0FC01B1704700BFC1
:10100000EC4600B52DE900502DE9FF1F4FF000031D
:101010002DE90C0001A9FFF7F7FBDDF840E012B065
:10102000704700BFEC4600B52DE900502DE9FF1FC9
:101030004FF000032DE90C0001A9FFF71FFCDDF8BC
:1010400040E012B0704700BFEC4600B52DE90050FB
:101050002DE9FF1F4FF000032DE90C0001A9FFF758
:101060002FFCDDF840E012B0704700BFEC4600B541
:101070002DE900502DE9FF1F4FF000032DE90C0072
:1010800001ABFFF7F1FBDDF840E012B0704700BFA5
:10109000EC4600B52DE900502DE9FF1F4FF000038D
:1010A0002DE90C0001AAFFF767FCDDF840E012B063
:1010B000704700BF027A7AB9437AA3B1032142682C
:1010C000013B10B443721368141D01721A0244608C
:1010D000026010BC180E70470368013A02721A02CF
:1010E0000260180E7047B020704700BF002300B5A3
:1010F00085B003AA009219460C22FFF7F3FB039870
:1011000005B05DF804FB00BFF0E700BF2DE9F04338
:1011100005460E464FF0000885B03046FFF7CAFF7F
:10112000B028044600F0B180070620D500F0F00397
:10113000802B4DD0902B36D0A02B60D0B02B73D00D
:10114000C02B00F08A8000F0F803D02B0BD100F008
:101150000702013242F40022052301212846FFF74D
:101160009FFD0028D9D0092005B0BDE8F0830023F9
:101170000DF10C0919460D228700CDF80090284684
:10118000FFF7B0FBFFB2039B043760064CBFDF1BC9
:10119000FF1800230D2219462846CDF8009003972A
:1011A000FFF7C4FBB9E700F00D030D2BDBD00023E4
:1011B00003AF194600F00F0200972846FFF792FB95
:1011C00000230D22194628460097FFF7AFFBA4E73E
:1011D0003046FFF76FFF24022043B0F5004FC2D026
:1011E0000023040119462846A2B2FFF759FD002842
:1011F000B9D114F4004F18BF4FF001088DE7C34375
:101200004FF47F6203F007031A410023010702F441
:101210007F6248BF42F4804219462846FFF740FDEE
:1012200000283FF47AAF9EE7B12833D0B22800F00F
:101230008B80B32839D000F0FC03B42B93D001236A
:1012400000F007021A4442F4002219462846FFF72C
:1012500027FD00283FF461AF85E7C62842D0C728A4
:101260004CD000F0F803C02B5BD0C82860D0C92850
:101270007FF479AF3046FFF71DFF020300F00F0047
:1012800002F470220130024366E7B8F1000F18D073
:10129000002069E73046FFF70DFF024600283FF4C3
:1012A00062AF10F0F003D0D05DE73046FFF702FFE9
:1012B0000123010300F00F0001F47021C2180A435A
:1012C000C3E703AC43460E22414628460094FFF78D
:1012D00009FB284643460F2241460094FFF726FBB0
:1012E000404641E73046FFF7E5FE010300F00F00FE
:1012F00001F47021421C03230A43A6E73046FFF79E
:10130000D9FE024600283FF42EAF10F0F0037FF420
:101310002AAF04212846FFF7C3FC00283FF4FDAEA6
:1013200021E700F00F020132032342F420228CE770
:101330003046FFF7BFFE00F0F00200F00F0310325E
:10134000013343EA023207E700230DF10C090D22B5
:1013500019462846CDF80090FFF7C4FA3046FFF74B
:10136000A9FE02064FF002040CD5039B00F07F009B
:10137000A040034430460393FFF79CFE030604F1AC
:101380000704F2D40023039A00F07F0000FA04F46B
:1013900002F50172144419460D222846CDF800903A
:1013A0000394FFF7C3FAB8E610B50324C36C84B006
:1013B0005A688DF80C40DC7912020833084601A9FE
:1013C00001928DF80D400293FFF7A0FE04B010BD0E
:1013D00008B5FFF799FE806C08BD00BF08B5FFF7A0
:1013E00093FEC06CC379023300EB830008BD00BFDD
:1013F00008B5062000F030FE012008F00DFE00BF09
:10140000002301461A46184602F096BA014B1868A6
:10141000704700BF0000002038B50A4C0A4D641B1D
:10142000A4100AD004F18043013B05EB8305013C85
:1014300055F804399847002CF9D1BDE838400AF036
:10144000C9BC00BF80DF00087CDF000870B50D4E0E
:101450000D4D761BB61006D00024013455F8043B20
:101460009847A642F9D1094E094D0AF0ADFC761B0A
:10147000B61006D00024013455F8043B9847A64224
:10148000F9D170BD70DF000870DF00087CDF000854
:1014900070DF0008024B0146186800F00BB800BF6F
:1014A00000000020024B0146186803F0CDBA00BFCF
:1014B000000000202DE9F04F01F10B05162D83B03F
:1014C000064623D8102900F2B68000F05DFB1025F7
:1014D00018230220D14F3B445C68A3F108029442D8
:1014E00000F0B6806368E16823F0030323445A6880
:1014F000A56842F00102E96030468D6008345A6008
:1015000000F044FB204603B0BDE8F08F35F007053E
:1015100000F19180A94200F28E8000F035FBB5F514
:10152000FC7FC0F090816B0A00F08C80042B00F2ED
:101530006081AB0903F1390003F1380CC100B74FEA
:1015400039444C680839A14206D10CE0002A80F2E7
:101550002981E468A14206D0636823F003035A1B83
:101560000F2AF3DD60463C69DFF8B4C264457AD0E7
:10157000636823F003035A1B0F2A00F37281002AC9
:10158000C7E904CC80F26381B3F5007F80F00E815F
:101590000122DB08991013448A40796857F833E038
:1015A00007EBC3080A43A8F10801C4E902E17A6025
:1015B00047F83340CEF80C40012483109C409442FD
:1015C00057D8144206D120F003006400144200F101
:1015D0000400FAD007EBC009CE468046DEF80C3096
:1015E0009E4507D111E1002A80F21E81DB689E45ED
:1015F00000F00B81596821F003014A1B0F2AF2DD2C
:1016000045F001083046D3E902E41D4442F00106EA
:10161000C3F80480CEF80C40C4F808E0C7E90455CC
:10162000C5E902CC6E605A50009300F0AFFA009BFF
:1016300003F1080402E00C2300243360204603B0C9
:10164000BDE8F08F4FF4007140204FF03F0C76E77B
:10165000DC68A34208BF02307FF444AF3C69DFF886
:10166000C0C1644584D101247A6883109C409442AF
:10167000A7D9BC68636823F00308A84503D3A8EB87
:1016800005030F2B7EDCDFF89C91D7F80824D9F8EE
:101690000030013204EB080A2B4400F02D8103F5E1
:1016A00080530F3323F47F6B2BF00F0B59463046DA
:1016B00000F034FC411C024600F0ED80824500F24F
:1016C000E880D9F804105944C9F804100B4600F01A
:1016D0004981D7F8081401311BBFA2EB0A0A534411
:1016E000C7F80824C9F8043012F0070300F010818D
:1016F000C3F108010A44C3F5805193440831A1EBBA
:101700000B01C1F30B0A514630460193009200F0E1
:1017100005FC421CDDE9002300F04981831A03EB3C
:101720000A0BD9F804104BF001035144BC42BA60D3
:10173000C9F80410536000F02181B8F10F0F40F296
:101740001F814FF0050C6368A8F10C0020F0070022
:1017500003F00103034304EB000E0F286360CEE99E
:1017600001CC00F22B8114465368D9F82C208A4210
:10177000D9F8302038BFC9F82C108A4238BFC9F8D0
:1017800030108AE045F0010243F001032544626015
:101790003046BD6008346B6000F0F8F9204603B0B5
:1017A000BDE8F08F23445A68E168A1E65A0A042A8A
:1017B00069D9142A00F2BE8002F15C01C9005B32D3
:1017C00007EB010E7958AEF1080E8E4500F09780B8
:1017D0004A6822F003029A4202D989688E45F7D1FD
:1017E000D1F80CE07A68C4E9021ECEF80840CC605B
:1017F000E2E6142B5FD9542B00F2A4802B0B03F1EB
:101800006F0003F16E0CC10099E608F1010818F0B1
:10181000030F0EF1080E7FF4E1AE57E03004002014
:1018200038040020D40900201C4619444A68DB68AB
:1018300054F8085F42F001024A603046EB609D6058
:1018400000F0A4F9FAE6E80805F1080342E62344AB
:101850005A68304642F001025A60083400F096F9A6
:10186000ECE645F0010E42F001012544C4F804E025
:101870003046C7E90455C5E902CC6960E25000F082
:1018800085F90834DAE69A0902F13901C9003832DB
:1018900096E7BC4260D0BC68636823F0030BAB459D
:1018A000ABEB050302D30F2B3FF76CAF304600F0D4
:1018B0006DF90024C2E603F15C0003F15B0CC1008A
:1018C0003DE659F808394B4540F0968010F0030F7B
:1018D00000F1FF30F5D17B6823EA04037B606400EC
:1018E0009C423FF6C6AE1CB9C3E6640008F104088A
:1018F0001C42FAD040466DE603F1100BD6E64FF0DD
:1019000001087B68921008FA02F21A437A606AE7CB
:1019100002EB0B014942C1F30B0A514630460193D9
:10192000009200F0FBFA431CDDE900237FF4F6AEE1
:101930009A46F6E6542A26D81A0B02F16F01C9001E
:101940006E323DE7B3F5AA7F26D8EB0B03F17800A2
:1019500003F1770CC100F2E5D9F804305B44C9F813
:101960000430B6E6CAF30B0000287FF4B2AE08EBF1
:101970000B03BC6843F001036360F6E61446F4E62B
:101980000123536092E7B2F5AA7F21D8DA0B02F166
:101990007801C900773213E740F25452934221D8BC
:1019A000AB0C03F17D0003F17C0CC100C7E5083BE3
:1019B0009B44ABEB020B4FF0000AB2E604F10801C6
:1019C000304603F041F8BC68D9F804106368CCE6EF
:1019D00040F254518A420BD89A0C02F17D01C900A1
:1019E0007C32EDE64FF47E717F204FF07E0CA6E551
:1019F0004FF47E717E22E3E67B6870E7844641EA1D
:101A0000000313F0030349D1403A23D30B6803606A
:101A10004B6843608B688360CB68C3600B6903616C
:101A20004B6943618B698361CB69C3610B6A036254
:101A30004B6A43628B6A8362CB6AC3620B6B03633C
:101A40004B6B43638B6B8363CB6BC3634030403121
:101A5000403ADBD230320BD30B6803604B684360F3
:101A60008B688360CB68C36010301031103AF3D2BA
:101A70000C3205D351F8043B40F8043B043AF9D248
:101A8000043208D0D2071CBF11F8013B00F8013B1B
:101A900001D30B8803806046704700BF082A13D328
:101AA0008B07B1D010F00303AED0C3F10403D21AF8
:101AB000DB071CBF11F8013B00F8013BA4D331F850
:101AC000023B20F8023B9FE7043AD9D3013A11F8D0
:101AD000013B00F8013BF9D20B7803704B7843705F
:101AE0008B78837060467047F0B4860746D0541EEA
:101AF000002A3CD0CAB2034602E014F1FF3436D3C8
:101B000003F8012B9D07F8D1032C29D9CDB245EA62
:101B100005250F2C45EA054533D9A4F110063609F1
:101B200003F1200707EB061703F1100242E9045501
:101B300042E902551032BA42F8D1721C14F00C0F6F
:101B400003EB021204F00F0613D0331F23F003033C
:101B50000433134442F8045B9342FBD106F00304C0
:101B60002CB1C9B21C4403F8011B9C42FBD1F0BC50
:101B7000704734461346002CF3D1F8E71446034669
:101B8000C2E71A462646E0E7704700BF704700BF2D
:101B9000024B0A460146186800F002B80000002017
:101BA0002DE9F84F1746002900F0BB8007F10B0420
:101BB00081460D46FFF7E8FF162C5ED8102422461A
:101BC000A7425FD855F804ECA5F108082EF00306EB
:101BD000964208EB060A80F28180CA4BDAF80400CC
:101BE0009968514500F0B58020F0010353445B68CB
:101BF000DB0700F18A8020F003003318934280F263
:101C000012811EF0010F0FD155F8083CA8EB030B11
:101C1000DBF8041021F0030108448319934280F299
:101C200016817318934234DA39464846FFF742FC6E
:101C30000746E0B155F8043CA0F1080223F0010387
:101C40004344934200F0F780321F242A00F2FB80C5
:101C5000132A296800F2C98003462A461960516890
:101C6000596092689A602946484602F0EDFE48465F
:101C7000FFF78CFF3846BDE8F88F24F00704002CEE
:101C800022469DDA0C230027C9F800303846BDE80B
:101C9000F88F5F46DBF80C1057F8080F321F242A24
:101CA000C1600BEB030A886000F2E280132A296806
:101CB00040F2E680CBF8081069681B2ACBF80C10BC
:101CC000A96800F2EB800BF1100208351160696819
:101CD0001E465160AB68D8463D469360D8F8042054
:101CE000331B0F2B02F0010220D83243C8F8042026
:101CF000DAF8043043F00103CAF804302F464846AE
:101D0000FFF744FF3846BDE8F88F1EF0010F8BD176
:101D100055F8083CA8EB030BDBF8041021F0030195
:101D20007FE71146BDE8F84FFFF7C4BB08EB04019D
:101D3000224343F00103C8F804204B60DAF8043072
:101D4000083143F00103CAF80430484602F07CFE33
:101D5000D4E720F00300311804F1100C61454FDA8C
:101D60001EF0010F7FF460AF55F8081CA8EB010BC3
:101D7000DBF8041021F00301084400EB060AD44507
:101D80003FF74FAF5F46DBF80C1057F8080F321FD4
:101D9000242AC160886000F2A380132A296840F2D7
:101DA0009D80CBF8081069681B2ACBF80C10A96835
:101DB00000F29C800BF110020835116069685160D7
:101DC000A9689160AAEB04020BEB040142F0010246
:101DD00099604A60DBF80430484603F001031C4375
:101DE000CBF80440FFF7D2FE50E701606B681B2A76
:101DF000436047D805F1080200F10803A9682DE700
:101E00000A1B42F0010208EB040199604A6055F890
:101E1000043C484603F001031C4345F8044CFFF71B
:101E2000B5FE2F4632E7DAE902121E46CA6008EB19
:101E3000030A916052E750F8043C23F003031E4468
:101E400008EB060A4AE7294602F048FF0BE75F461F
:101E5000DAE90201C160886057F8080FDBF80C105E
:101E6000321F242AC1600BEB030A88607FF61EAF85
:101E7000294638461E46D84602F030FF3D462DE73B
:101E80003A4623E7AB68242A8360EB68C36011D02D
:101E900005F1100200F110032969DFE6CBF81010FC
:101EA000E968242ACBF8141029690DD00BF1180227
:101EB00010350BE72B6905F118020361696900F120
:101EC00018034161A969C9E6CBF8181069690BF1DB
:101ED0002002CBF81C10A9691835F7E63A466CE7E2
:101EE0002946384602F0FAFE064B6BE7CBF8101095
:101EF000E968242ACBF81410296905D00BF11802DF
:101F000010355AE730040020CBF8181069690BF13E
:101F10002002CBF81C10A96918354EE738B500230C
:101F2000064C05460846236008F09AF8431C00D08A
:101F300038BD2368002BFBD02B6038BDB8160020BD
:101F400010B580210446FFF7B5FAC4F8DC0240B1B1
:101F50000022031F7C3043F8042F8342FBD1002072
:101F600010BD4FF0FF3010BDD0F8DC320BB10020B7
:101F70007047E5E71F2970B5054609D8D0F8DC326F
:101F800016460C464BB153F8240043F8246070BD4C
:101F900016224FF0FF302A6070BDFFF7D1FF10B955
:101FA000D5F8DC32EFE74FF0FF3070BD1F2938B5B0
:101FB000054621D8D0F8DC220C466AB152F821300F
:101FC00053B1012B16D0591C10D00025204642F8E1
:101FD00024509847284638BD284600F073F822461A
:101FE00001462846BDE8384000F058B816230120C5
:101FF0002B6038BD002038BD16234FF0FF302B601A
:1020000038BD00BF1F2923D838B5D0F8DC320546CB
:102010000C4683B153F8242003EB84034AB1511CCE
:1020200011D0012A0DD0002520461D60904728467A
:1020300038BD012038BDFFF783FF30B9D5F8DC3259
:10204000E8E7032038BD022038BD4FF0FF3038BD2F
:102050004FF0FF30704700BF024B01461868FFF792
:10206000A5BF00BF00000020024B0A4601461868C9
:10207000FFF780BF00000020034B1868D0F8DC3267
:102080000BB1002070475BE700000020024B0146C7
:102090001868FFF7B7BF00BF0000002070B50D46FD
:1020A0000023074C064611462846236007F0ACFF84
:1020B000431C00D070BD2368002BFBD0336070BD83
:1020C000B816002007F09EBF08B430B5002A9CB0B7
:1020D000044633DB4FF4027302910691ADF81430DD
:1020E0004FF6FF7120AD16D0013A04920792ADF879
:1020F00016101F9A2B4602A9019500F0B5F9421C53
:1021000001DA8B2323600022029B1A701CB0BDE809
:10211000304001B070472B4604920792ADF816107C
:102120001F9A02A9019500F09FF9431C01DA8B2345
:1021300023601CB0BDE8304001B070478B224FF0E7
:10214000FF302260F5E700BF0CB430B51F4B00290B
:102150009DB01C6835DB4FF4027302900690ADF819
:1021600014304FF6FF7021AD17D00139209A049139
:102170000791ADF816002B4602A92046019500F004
:1021800073F9421C01DA8B2323600022029B1A7030
:102190001DB0BDE8304002B070472B460491079156
:1021A000ADF81600209A02A92046019500F05CF9CE
:1021B000431C01DA8B2323601DB0BDE8304002B020
:1021C00070478B234FF0FF302360F5E700000020BD
:1021D0000CB470B56FF000459CB020AC54F8042BE3
:1021E000094E02910691234602A901940795CDE973
:1021F000045600F039F90022029B1A701CB0BDE8A9
:10220000704002B0704700BF0802FFFF0EB40346E3
:1022100030B56FF000449CB01FA951F8042B0A4858
:102220000A4D0293069301910B46006802A9079498
:10223000CDE9044500F018F90022029B1A701CB089
:10224000BDE8304003B07047000000200802FFFFE7
:1022500080EA010C1CF0030F37D110F0030C20F0C2
:10226000030021F0030150F8042B08BF51F8043B90
:102270000ED08CF0030C6FF07F434FEACC0C23FAA6
:102280000CFC51F8043B42EA0C0243EA0C0300BF89
:10229000A2F1013C9A4201BF2CEA020C1CF0803FE3
:1022A00050F8042B51F8043BF2D04FEA02604FEA99
:1022B0001222012828BFB0EB036F08BF1B0AF4D01D
:1022C00003F0FF03000EC01A704710F0030F0AD08E
:1022D00010F8012B11F8013B012A28BF9A42F4D0D3
:1022E000A2EB030070474DF8045D50F8042B01F099
:1022F000030521F0030151F8043B022D26D04DD8EF
:1023000022F07F45B5EB132FA2F1013C2CEA020C21
:102310000DD11CF0803C08BF51F8043B0AD185EA7E
:102320000205B5EB036F0CD150F8042BE8E74FEA38
:1023300013235BE03CF07F4C54D10B784FEA1265DD
:1023400054E04FEA126503F0FF034FE04FEA024505
:10235000A2F1013C4FEA15452CEA020CB5EB134FF4
:1023600018D11CF0803C08BF51F8043B07D185EA26
:102370000205B5EB034F09D150F8042BE6E75FEAFD
:102380000C4C2FD10B884FEA12452FE04FEA034344
:102390004FEA12454FEA134328E000BF02F0FF0561
:1023A000B5EB136FA2F1013C2CEA020C0DD11CF02D
:1023B000803C08BF51F8043B0AD185EA0205B5EB21
:1023C000032F0AD150F8042BE8E74FEA13630DE01E
:1023D00012F0FF0F06D051F8043B4FEA122523F00C
:1023E0007F4303E04FF0000020BC704705F0FF0280
:1023F00003F0FF00012828BF904204BF2D0A1B0AEA
:10240000F4D0A2EB000020BC704700BF20F0030115
:1024100010F00300C0F1000051F8043B00F1040C7F
:102420004FEACC0C6FF000021CBF22FA0CF21343EF
:102430004FF0010C4CEA0C2C4CEA0C4CA3EB0C02B8
:1024400022EA030212EACC1204BF51F8043B043022
:10245000F4D0C2F1000102EA0102B2FA82F2C2F142
:102460001F0200EBD20070472DE9F04FBFB00C46C1
:102470000B919246CDE90C0302F0E2FB036818468B
:102480001593FFF7C3FFA38913901D0603D5236996
:10249000002B00F05B87002300210022CDE92233CE
:1024A000CDE910120DF1B809129314931693089305
:1024B000CDF884909AF80030002B00F0BF80252BD7
:1024C00000F09286554603E0252B00F0A9802546B2
:1024D0006B786C1C002BF7D1B4EB0A0600F0AE80D1
:1024E000DDE9223201333244072BC9E900A6CDE9E8
:1024F000223200F39A8009F10809089A6B78324475
:102500000892002B00F09A8000234FF0FF361A4605
:1025100019469B4667788DF86730099304F1010AE4
:102520000AF1010AA7F12003582B00F2C582DFE867
:1025300013F0E200C302C302DD00C302C302C30200
:10254000C302C302C302D000CB00C302C600AD0069
:10255000C302A80099009900990099009900990078
:10256000990099009900C302C302C302C302C302C7
:10257000C302C302C302C302C30294025502C302D0
:102580005502C302C302C302C3024C02C302C30208
:102590006800C302C302C302C302C3025900C302DC
:1025A000C3023402C302C302C302C302C302C30292
:1025B000C302C302C302C302BB019101550255020B
:1025C00055028C019101C302C3027F01C30269015C
:1025D0006A003A013501C3020B01C3025B00C3026A
:1025E000C302EA004BF0100B1BF0200F00F05982E1
:1025F0000D9C073424F00703F3E802450D930123F3
:10260000E1E04BF0100B1BF0200300F040820D9C2A
:10261000073424F00703F3E802450D930023D2E0CA
:10262000B4EB0A063FF470AF5AE721AADDE90B10BC
:1026300003F078F848B90DF1B8095EE7239B23B1A0
:102640000C9821AA0B9903F06DF80B9B9B8913F052
:10265000400F089B18BF4FF0FF33089308983FB016
:10266000BDE8F08F0020A7F130031AF8017B00EBE2
:10267000800003EB4000A7F13003092BF5D9099046
:1026800050E74BF0800B9AF8007049E7504610F87D
:10269000017B2A2F01F03081A7F13003092B8246FC
:1026A0004FF000063FF63EAF1AF8017B06EB8606B8
:1026B00003EB4606A7F13003092BF5D932E79AF868
:1026C00000704BF0040B2BE79AF8007001222B21CD
:1026D00026E70D9B9AF8007053F8040B0028099028
:1026E0000D93BFF61DAF43420993EAE74BF0010B90
:1026F0009AF8007014E79AF8007000297FF410AF80
:10270000012220210CE7002A41F08680B14B1BF00A
:10271000200F149300F04A810D9C073424F0070326
:10272000F3E802450D931BF0010F00F0D68154EA47
:10273000050300F0D28130238DF869708DF8683080
:102740004BF0020B02233EE000250D9C8DF86750F4
:1027500054F8043B0E93002B00F09F86711C00F090
:102760002986324629460E9802F072FA002801F0B6
:1027700031802E460E9BC31A0A939DF8678023EA88
:10278000E3730D94CDF818B007930F96B8F1000FCE
:1027900000F09C80079B0133079397E04BF0200BE0
:1027A0009AF80070BCE647F630030D9CADF868302F
:1027B00054F8042B874B0D941493144600250223E0
:1027C00078274BF0020B002290468DF86720721C90
:1027D00000F087812BF08002069254EA050240F057
:1027E0007E81002E40F0BF83002B58D11BF00103E7
:1027F0000A9300F0148530238DF8B7300DF1B7033C
:102800000E93D0E3002A41F017800D9A1BF0200FA1
:1028100052F8043B0D9240F005851BF0100F40F07C
:10282000D0851BF0400F00F0CC85089A1A8041E655
:102830009AF800706C2F03BF9AF801704BF0200BD0
:102840000AF1010A4BF0100B6AE64BF0400B9AF8C4
:10285000007065E6002A40F0DB871BF0200F00F0D7
:1028600005810D9C073424F007031946F1E8022383
:1028700014461D460D91002A73F10003C0F2A7848F
:10288000731C9DF8678000F099832BF080030693FA
:1028900054EA050340F09083002E40F05C87002648
:1028A0002EAB0E930A967EE3012100220D9C079128
:1028B00054F8043B8DF867208DF8903024AB0D94CC
:1028C0000A910E930026CDF818B00F96069B13F0D0
:1028D000020302D0079A02320792069A239C12F052
:1028E000840B05D1099A0799551A002D00F37382BC
:1028F0009DF8672072B10120229A044402440DF130
:102900006701072ACDE92224C9E9001000F3D98222
:1029100009F108096BB10221229B0C4401331AAA68
:10292000072BCDE92234C9E9002100F3D88209F14F
:102930000809BBF1800F00F05C810A9BF61A002E9B
:1029400000F39F81069BDE0500F1F880229B0A9A26
:1029500001330E991444072B2394C9E900122293E2
:1029600000F3A38209F10809069B5A0705D5099BC4
:10297000079A9D1A002D00F3BE82DDE908320799FF
:102980008A42ACBF9B185B180893002C40F0B381BF
:1029900000230DF1B80922938CE5002A40F040870E
:1029A0000D4B1BF0200F14937FF4B6AE0D9B1BF064
:1029B000100F53F8044B0D9340F013841BF0400F9D
:1029C00000F00F84A4B20025ADE64BF0080B9AF896
:1029D0000070A5E518DD000804DD0008002A40F0BD
:1029E00023870D9C073424F00703F3E802121446F2
:1029F0000D930B46CDE9103422F000440D460846F5
:102A00004FF0FF322146C04B05F0D2FC002840F0C9
:102A10001884284621464FF0FF32BB4B05F0AAFC34
:102A2000002840F00E84DDE910010022002305F0AB
:102A300097FC002840F023869DF86780032100263C
:102A4000B24AB34B0791472FC8BF1A462BF08000FC
:102A500006900A910F960E9298E6002A40F0E886BA
:102A60004BF0100B1BF0200F7FF4FBAE0D9B1BF007
:102A7000100F53F8044B0D9340F0A1831BF0400F4F
:102A800000F09D8324B2E51722462B46F3E60D9A0B
:102A900052F8044B0D921BF0100200F0CA8300257F
:102AA00091E60D9B1BF0100F53F8044B0D9300F0B3
:102AB00032840025012386E6002A40F00C86002F90
:102AC0003FF4BCAD002301228DF8673024AB0792A0
:102AD0008DF890700A920E93F4E6022373E6DDF807
:102AE00018B0012B00F06A82022B00F044822EA95C
:102AF00000E01146E20842EA4572E80804F00703E4
:102B000005461446303354EA050001F8013C01F152
:102B1000FF32EED11BF0010F0E9200F0FC82302B41
:102B200000F00D8430230E9A023902F8013C2EABDE
:102B30005B1ACDF818B00A930E9134E2652F40F37A
:102B4000ED80DDE910010022002305F0FFFB0028E5
:102B500000F044820121229B6E4A0B440C44072B57
:102B600023942293C9E9002100F3718409F1080933
:102B70001B9B129A239C934203DB069BDD077FF588
:102B8000F3AE229B139A013315991444072BC9E91C
:102B90000012CDE9223400F3738409F10809129B75
:102BA0005D1E002D7FF7E0AE102D229A40F3338496
:102BB000DDE90B871026DFF860B105E009F10809AF
:102BC000103D102D40F3298401321034072ACDE93D
:102BD0002224C9E900B6F1DD21AA4146384602F0B7
:102BE000A1FD00287FF431ADDDE922240DF1B80903
:102BF000E6E7099B079A9D1A002D7FF79EAE102DE0
:102C0000229A40F31D86DFF810B14B465846B14674
:102C10002146DDE90B64BB464FF01008074604E08F
:102C2000103D102D03F1080315DD01321031072A84
:102C3000CDE92221C3E90078F2DD21AA3146204600
:102C400002F070FD00287FF400ADDDE92221103D87
:102C5000102D2EABE9DC4E4699463B460C465F46AE
:102C60009B4601322C44072ACDE92224C9E900B54C
:102C700000F3F9830A9B09F10809F61A002E7FF781
:102C800061AE102E229A40F3E984DFF88CB023461F
:102C9000DDE90B4859461025BB460F4604E0103EBF
:102CA000102E09F1080916DD01321033072ACDE98B
:102CB0002223C9E90075F2DD21AA2146404602F02F
:102CC00031FD00287FF4C1ACDDE92223103E102E37
:102CD0000DF1B809E8DC1C463B465F469B460132D5
:102CE0003444072ACDE92224C9E900B600F35A8208
:102CF00009F1080926E621AADDE90B1002F012FD10
:102D000000283FF445AEA0E4FFFFEF7FF4DC0008AD
:102D1000F8DC000834DD0008F4BD0008129A229B9C
:102D2000012A04F1010403F1010509F1080640F349
:102D3000FD8101230E9A072DC9F80020CDE9225408
:102D4000C9F8043000F35382139B0135159A1C44D3
:102D5000072DCDE92254C6E9002300F3548208363A
:102D60006B1C1F46DDE91001B846129F0A93002232
:102D7000002306F10809013F05F0E8FA002840F0B9
:102D8000E9810E9B3C440133B8F1070F3360239473
:102D90007760CDF8888000F34A8306F110034E4631
:102DA000994605F10208169A1DAB1444B8F1070FB5
:102DB00023947260CDF8888033607FF7D5ADDDE96C
:102DC0000B1021AA02F0AEFC00287FF43EAC0DF1FE
:102DD000B809239CC8E5102D229A2ADD49462046D1
:102DE000B1464FF010082E46DDE90B54179304E06E
:102DF000103E102E01F1080116DD0132C94B1030D2
:102E0000072ACDE92220C1E90038F1DD21AA2946AF
:102E1000204602F087FC00287FF417ACDDE9222071
:102E2000103E102E2EA9E8DC354604464E46894653
:102E3000179B0132BB492C44072ACDE92224C9E95A
:102E4000001500F3CA8209F1080951E521AADDE95C
:102E50000B1002F067FC00287FF4F7AB1B9B239C50
:102E60000DF1B809002B40F02383069B129A03F062
:102E7000010313433FF478AD229A139B0132159955
:102E80001C44072A2394C9E90013229200F32784E3
:102E900009F10809129B01320E991C44072ACDE959
:102EA0002224C9E900137FF75DADDDE90B1021AAEB
:102EB00002F038FC00287FF4C8AB239C0DF1B80960
:102EC00052E521AADDE90B10179302F02BFC002834
:102ED0007FF4BBAB0DF1B809239C179B1AE521AA1F
:102EE000DDE90B1002F01EFC00287FF4AEAB0DF103
:102EF000B809239C1DE5102D229B20DDDDE90B8701
:102F0000102604E0103D102D09F1080917DD0133EA
:102F1000844A1034072BCDE92234C9E90026F1DDBB
:102F200021AA4146384602F0FDFB00287FF48DAB14
:102F3000DDE92234103D102D0DF1B809E7DC013335
:102F4000784A2C44072BCDE92234C9E900257FF7C4
:102F500014ADDDE90B1021AA02F0E4FB00287FF498
:102F600074AB239C09E5012B00F0F583022BDDF8FF
:102F700018B07FF4BCADDDF850C02EAA230943EA97
:102F80000573280904F00F0105461C461CF80130A2
:102F900002F8013D54EA0503F0D12EAB9B1A0E92C4
:102FA000CDF818B00A930A9BB342B8BF33460793D3
:102FB00000230F93FFF7EABBDDF818B0002D08BF20
:102FC0000A2C80F08680012330340A930DF1B70378
:102FD0008DF8B740CDF818B00E93E4E71B9B002B9B
:102FE00040F30A82129B0F9A9342A8BF1346002B0C
:102FF0001D460CDD229B0E9A01332C44072B239493
:10300000C9E90025229300F3C88309F108090F9B41
:10301000002DA8BF5B1B002B1D4600F3A6811B9A49
:10302000129B9A4280F27F81229B1399013315985B
:103030000C44072B2394C9E90001229300F33C833D
:1030400009F108090F99129B9142A3EB020380F248
:10305000BC811D46002D10DDDDE90E10229A0144D1
:1030600001322C44072AC9F800102394C9F80450EF
:10307000229200F3A08309F10809002DB4BF1D4678
:103080005D1B002D7FF770AC102D229A40F3C38199
:10309000DDE90B871026DFF890B005E009F108099B
:1030A000103D102D40F3B98101321034072ACDE9CB
:1030B0002224C9E900B6F1DD21AA4146384602F0D2
:1030C00031FB00287FF4C1AADDE922240DF1B80903
:1030D000E6E72EABCDF818A0C246B0461E4601E08A
:1030E00004460D460A2200232046294605F076F9BB
:1030F000303206F8012D00230A222046294605F029
:103100006DF9002D08BF0A2CEAD232460E964646CB
:10311000D046DDF818A02EAB9B1ACDF818B00A9354
:1031200041E700BFE4BD0008F4BD0008069AD107DE
:103130003FF5FFAD01220E99072DC9F80010CDE92A
:103140002254C9F8042000F3A08203F1020809F117
:10315000100928E6002F7FF726AE102F40F3C88312
:103160002346DDE90B494FF01008DFF8B4B50A9D9E
:1031700005E00836103F102F40F3D381013510339E
:10318000072DCDE92253C6E900B8F2DD21AA214678
:10319000484602F0C7FA00287FF457AADDE9225317
:1031A0002EAEE7E721AADDE90B1002F0BBFA0028FA
:1031B0007FF44BAA0DF1B809239CFFF7C3BBE517B9
:1031C00022462B46002A73F10003BFF659AB4FF09D
:1031D0002D08644265EB45058DF867800123FFF7F4
:1031E000F6BA0025FFF79FBA5446FFF78DB921AA1A
:1031F000DDE90B1002F096FA00287FF426AADDE93B
:1032000022542EAEA0E521AADDE90B1002F08AFAC5
:1032100000287FF41AAADDE922542EAEA0E52EABD9
:103220000E93C0E6089A1046D117C3E90001FFF7D4
:1032300041B91BF040031CBF1346A4B20025FFF7A1
:10324000C2BADDE9100102460B4605F0B1F80028CC
:1032500040F0368327F02003741C079300F0A98206
:10326000472B00F0B680DDE910124BF48073151E79
:103270000693C0F21B820023DDF840801793662F6F
:1032800000F06481462F00F06181079B4246452B88
:103290004FF002002B4600F061821FA9CDE9000625
:1032A00004911CA81BA9CDE902100C9800F00EFC9B
:1032B000672F0E90344640F05E821BF0010F40F005
:1032C0005D821B9A1F9B0F920E9A9B1A1293079B6B
:1032D000472B40F080810F9BD81CC0F27B819E421F
:1032E000C0F27881129B19460F9B994200F37D82B0
:1032F0001BF0010F40F0DB82672723EAE37207929D
:103300000A93179B002B00F043822D2300268DF893
:103310006730FFF73FBA1BF0400F18BFA4B200257B
:103320000123FFF750BA069BD8073FF57DAE0F99F2
:10333000129B8A42A3EB020347DD1D469DE60E9ACF
:103340002EAB9B1ACDF818B00A932CE640210C98AE
:10335000FEF7B0F80B9B18601861002800F0DA82C5
:1033600040230B9A5361FFF796B8102B229A40F333
:103370007981DDE90B871026DFF8A4B305E009F1B8
:103380000809103D102D40F36F8101321034072AD7
:10339000CDE92224C9E900B6F1DD21AA414638462B
:1033A00002F0C0F900287FF450A9DDE922240DF1D4
:1033B000B809E6E70E98FFF729F82E460346FFF70F
:1033C000DBB9089A1A60FFF775B8129A0F99551A67
:1033D00040E6002E08BF012645E721AADDE90B10D3
:1033E000179302F09FF900287FF42FA90DF1B80977
:1033F000239C179BFFF77CBA0120229AC5490244FF
:103400000444072ACDE92224C9E900103FF71EAD84
:1034100009F1080926E5DFF808B301322C44072A30
:10342000CDE92224C9E900B57FF79CAA3DE521AA90
:10343000DDE90B1002F076F900287FF406A9DDE93A
:1034400022340DF1C00903F101082EAEABE421AA2C
:10345000DDE90B1002F066F900287FF4F6A80DF103
:10346000B809FFF785BB21AADDE90B1002F05AF974
:1034700000287FF4EAA80DF1B809239CFFF75DBA94
:1034800021AADDE90B1002F04DF900287FF4DDA838
:103490000DF1B809239CFFF782BB062E334628BFE7
:1034A00006230A9307939C4B0D940E93FFF70ABAD9
:1034B000229A1399013215980C44072A2394C9E9DA
:1034C0000001229200F30B8109F10809002BBFF6DD
:1034D000E1AC5D42103380F22582DFF844B2102661
:1034E0005F46DDF82C80DDF830B005E009F1080911
:1034F000103D102D40F3A88101321034072ACDE988
:103500002224C9E90076F1DD21AA4146584602F09D
:1035100009F900287FF499A8DDE922240DF1B80902
:10352000E6E71C4605F1010806F108023C44B8F143
:10353000070F2394C6E900B7CDF888803FF777AF2F
:1035400008F1010802F1080916462CE403201FA91E
:10355000CDE9000604911CA81BA92B46CDE9021059
:1035600042460C9800F0B2FA0E900E9B84191B781C
:10357000302B00F081811B9B1C44404629460022D1
:10358000002304F0E3FE002840F0A3801F9BA34229
:1035900006D230215A1C1F9219701F9B9C42F9D8E9
:1035A0000E9A9B1A12931B9B0F93079B472B3FF47A
:1035B00092AE662F0FD10F9A0BF00103002A43EA57
:1035C000060340F3DE80002B40F063810F9B0793DE
:1035D0000A9396E6023F0F9B8DF874705A1E002ADC
:1035E000A8BF2B231B92BCBFC3F101022D23092AC4
:1035F0008DF8753040F396800DF183042046474DD9
:1036000001E008461A4685FB0231D317C3EBA1033C
:1036100003EB8301A2EB41013031632A00F8011C66
:1036200000F1FF31EDDC3033821EDBB2944201F851
:10363000013C40F26C810DF1760201E011F8013B92
:103640008C4202F8013BF9D10DF185030DF17602B0
:103650001B1A13441DAA9B1A16936BE0DFF8C0B027
:10366000FFF73DBBDFF8B8B001322C44072ACDE9A3
:103670002224C9E900B540DC09F10809CFE42D2373
:1036800098468DF86730FFF7D9B921AADDE90B100C
:1036900002F048F800287EF4D8AFDDE922342EAEDF
:1036A00003F101080DF1C009FFF77DBB2D2388460A
:1036B00002F100451793E2E521AADDE90B1002F0C3
:1036C00031F800287EF4C1AF0DF1B8091B9A239C94
:1036D000B8E4234664E78DF86710FFF7F0B921AA34
:1036E000DDE90B1002F01EF800287EF4AEAFDDE934
:1036F00022240DF1B8091B9BE8E621AADDE90B1095
:1037000002F010F800287EF4A0AF0DF1B809239C58
:1037100085E400BF34DD00082CDD000867666666BE
:10372000F4BD000830231A448DF8763004238DF858
:1037300077201693129A169B012A13440A9340F39A
:10374000B0800A9B139A13440A9323EAE373079306
:1037500000230F93D5E5DDF818B034E41FA90090DD
:1037600004911CA81BA9741CCDE9021001940C98AB
:1037700000F0ACF90E90472F3FF49FAD0E9B1C4418
:10378000FBE6002B40F0AC80012307930A93B8E5D9
:10379000179E9DF86780FEF7F9BF21AADDE90B109F
:1037A00001F0C0FF00287EF450AF0DF1B809239C52
:1037B0002DE4062657E521AADDE90B1001F0B2FF42
:1037C00000287EF442AF1B9B129A239CD31A0DF162
:1037D000B80952E407960A960D940646CDF818B03B
:1037E0000F909DF86780FEF7D1BFDDE912321344D8
:1037F0000F9A0A93002A06DC0F9B0A9AC3F1010371
:103800001A4413460A9223EAE3730793672778E57D
:103810008DF86710FFF721B88DF86710FEF776BFB7
:103820008DF86710FFF7BCB88DF86710FFF7D9B8AF
:103830008DF86710FFF714B98DF86710FEF7E5BF34
:10384000DFF8F0B0FFF70DBABB4601322C44072A6F
:10385000CDE92224C9E900B57FF71AABDDE90B10E9
:1038600021AA01F05FFF00287EF4EFAEDDE92224FB
:103870000DF1B809FFF70EBB404629460022002390
:1038800004F064FD00287FF476AEC6F101031B93BB
:1038900072E6139BD31833440A9323EAE373079326
:1038A0002FE51BF001020F927FF44BAFF5E70F9B62
:1038B000139A672713440A9323EAE373079320E5D7
:1038C000119B0321002BB7BF2D239DF867809846DD
:1038D0008DF8673007910026144A154BFFF7B3B8EF
:1038E000139B013333440A9323EAE373079308E5F8
:1038F0004A46DFF840B019E60D9B9AF8017053F87C
:10390000046B824646EAE6760D93FEF709BE022373
:1039100016930FE74FF0FF320C2308920C9A1360B6
:10392000FEF79CBEDFF80CB08FE700BFFCDC0008A0
:1039300000DD0008F4BD0008F0B4174C2568D5F888
:1039400048410CB365681F2D23DC38B900206B1C7F
:103950000235636044F82510F0BC7047012604EB83
:10396000850CCCF88820D4F8887106FA05F2174344
:103970000228C4F88871CCF80831E7D1D4F88C312A
:103980001A43C4F88C21E1E705F5A674C5F848414F
:10399000D8E74FF0FF30DFE7E0BD0008000000008F
:1039A0002DE9F04F03690E6983B0B342C0F28980FC
:1039B000013E01F1140500F1140955F8263059F8BB
:1039C000262001338246B000009005EB00089A42A1
:1039D0004844B2FBF3F701903CD30022AE461446B4
:1039E000CC465EF8043BDCF800001FFA83FB07FBC3
:1039F0000B221B0C4FEA124B07FB03BB93B2E31ADB
:103A000082B21FFA8BF41344C4EB104404EB23443A
:103A10009BB243EA0443F0454CF8043B4FEA24448C
:103A20004FEA1B42DDD2009B59F8033093B9019A4B
:103A3000131F99450CD252F8043C4BB9A2F108036C
:103A400002E01A68043B1AB9994506F1FF36F8D32B
:103A5000CAF81060504601F03FFC00282DDB4846B4
:103A60000023013755F8041B04688AB29A1A0B0C1C
:103A7000A1B20A44C3EB144303EB224392B242EADD
:103A80000342A84540F8042B4FEA2343EAD259F8F1
:103A9000262009EB860382B91A1F91450BD253F8F1
:103AA000042C42B9083B02E01A68043B1AB9994554
:103AB00006F1FF36F8D3CAF81060384603B0BDE807
:103AC000F08F002003B0BDE8F08F00BF2DE9F04F6C
:103AD0001F461646036C97B00446CDE902674BB10A
:103AE0000122456C1946AA40C3E9015201F082F94E
:103AF000002323643E1EB4BF01230023239AB8BFD2
:103B000026F000461360764BB8BF0396B34300F02F
:103B1000AF80DDE902231046194600220023CDE9DB
:103B2000080104F013FC074678B10123229A1360C0
:103B3000249B002B00F041836A4B249A1360013BC5
:103B40000493049817B0BDE8F08F14AA15ABCDE923
:103B50000032DDE90889204642464B4601F0EAFC86
:103B6000350D834640F09A80DDE91485454405F221
:103B70003243202B40F3F183C3F140039E40029B6C
:103B800005F2124023FA00F03043FCF747FC0246EE
:103B90000120013D0D90A1F1F87310461946002255
:103BA000514BFCF7FDFA48A3D3E9002304F066F972
:103BB00047A3D3E90023FCF7F5FA064628460F464B
:103BC000FCF73CFC44A3D3E9002304F057F9024678
:103BD0000B4630463946FCF7E5FA06460F46FCF739
:103BE00097FC0022824600233046394604F0B8FB99
:103BF000002840F0D582A8EB05056B1EBAF1160F20
:103C0000059300F2C282DDE90801384B03EBCA03D9
:103C1000D3E9002304F0A4FB00286DD000230C930B
:103C2000059B0AF1FF3A002BC0F2B5824FF0000964
:103C3000BAF1000F66DACAF100030B93209BA9EBDF
:103C40000A09092BCDF818A04FF0000A63D8052BFC
:103C500040F381830025043B2093209B023B032BF0
:103C600000F27A86DFE813F0A804A5047E04980425
:103C700042F20F73229AC6F313061360029B33437A
:103C800019D1249B002B00F07686194B049308333E
:103C9000249A0498136017B0BDE8F08FC9F313019C
:103CA00041F07F534246A5F2FF350D9743F4401390
:103CB000DDF8508071E7249B002B40F041840D4BD0
:103CC00004933EE7AFF3008061436F63A787D23F61
:103CD000B3C8608B288AC63FFB799F501344D33FFB
:103CE0000000F07F35DD00080000F83F18BE000836
:103CF0003CDD000838DD0008059B0C90002BC0F26D
:103D00004A828146059B5344CDE9053A00230B9333
:103D1000209B092B9BD900230125209321934FF051
:103D2000FF330A9507930021079B61641093204697
:103D300001F03AF80490002800F01686049B2364F2
:103D4000079B0E2B00F23481002D00F03181069983
:103D5000002940F37384AA4B01F00F0203EBC20366
:103D60000D11D3E90023CDE90E23EA0640F13C848E
:103D7000DDE90801A34B0327D3E9082304F0A8F9E0
:103D8000CDE9020105F00F057DB1DDE90E019D4E83
:103D9000EB0704D5D6E9002304F070F801376D1065
:103DA00006F10806F4D1CDE90E01DDE90201DDE9F5
:103DB0000E2304F08DF9CDE902010C9B43B1DDE93E
:103DC00002010022904B04F0CBFA002840F03A8523
:103DD0003846FCF733FBDDE9022304F04FF88B4B48
:103DE0000022FCF7DFF9A1F15073CDE90E010F932A
:103DF000079B002B00F0BC80069B1293079B11933E
:103E0000DDE9026739463046FCF782FB0546FCF7E0
:103E100015FB02460B4630463946FCF7C1F9119AAC
:103E2000774B064603EBC2030F46DDE90E120A98F4
:103E3000CDE9021253E90223049930355FFA85F87F
:103E40004D1C002800F090840020714904F040F9D6
:103E5000DDE90223FCF7A4F9049B324683F80080D5
:103E60003B46CDE9020104F099FA002840F0CB84EA
:103E700032463B4600206449FCF792F902460B4665
:103E8000DDE9020104F08AFA002840F05185119B17
:103E9000012B00F08980049ACDF844901344CDF8AA
:103EA0004CA0CDF838B09946DDE902ABA0460FE052
:103EB00032463B4600205449FCF772F952465B46B5
:103EC00004F04EFA002840F002854D4500F00885C8
:103ED0005046594600224F4B03F0D0FF00224D4B75
:103EE00082468B463046394603F0C8FF0F460646E9
:103EF000FCF70EFB0446FCF7A1FA02460B463046DF
:103F00003946FCF74DF93034E4B205F8014B52461E
:103F10005B4606460F4604F023FA0028C8D0444604
:103F2000129BDDF838B0013306935946204600F065
:103F300061FF00232B70229B1A46069B1360249B73
:103F4000002B3FF4FEAD04981D6017B0BDE8F08F64
:103F50003846FCF773FADDE9022303F08FFF2B4BA1
:103F60000022FCF71FF9A1F15073CDE90E010F9368
:103F70000022DDE90201284BFCF712F9DDE90E7899
:103F80003A46434605460E4604F008FA074600281E
:103F900040F0D483DDE90E01024601F100432846DA
:103FA000314604F0DDF930BBDDE90823CDE9022319
:103FB000159B002BC0F2C780069A0E2A00F3C3801F
:103FC0000F4B03EBC203D3E9009A219B002B25DAA8
:103FD000079F002F22DC40F06A8400220E4B4846E7
:103FE000514603F04BFFDDE9022304F0CDF9002830
:103FF00000F0A583079F3E46219B049DDB4373E2AF
:1040000018BE000808BF00080000F03F00001C4078
:104010000000E03F0000244000001440DDE902679A
:104020004A4653463046394604F052F8FCF770FAD7
:104030008046FCF703FA4A46534603F01FFF024648
:10404000304646460B463946FCF7AAF8049D303602
:10405000069F05F8016B079E0137012E02460B46AD
:10406000069744D00022CA4B03F008FF0022002329
:1040700006460F4604F06AF900287FF456AFCDF8E3
:1040800008B04FF00108DDF81CB005940CE00022E8
:10409000BF4B03F0F3FE0022002306460F4604F058
:1040A00055F9002840F041834A4653463046394688
:1040B00004F00EF8FCF72CFA0446FCF7BFF94A4668
:1040C000534603F0DBFE02460B4630463946FCF70A
:1040D00067F808F1010804F13006C34502460B46B3
:1040E00005F8016BD3D1A046DDF808B0059C104659
:1040F0001946FCF757F84A46534606460F4604F061
:104100004DF960B94A4653463046394604F01EF927
:1041100000283FF40AAF5FEAC8717FF506AF15F8D3
:10412000018C6B1E049A04E09A4200F0B18313F8EC
:10413000018DB8F1390F03F10105F5D008F1010245
:10414000D2B21A70F1E60A9A002A3CD0209A012ACB
:1041500040F36782079B5F1E0B9BBB4280F242824B
:104160000B9B0B97FB1A00279A44079B002BC0F26E
:10417000E182059A4D461146194405919944012161
:10418000204600F03BFF064620E001230C93059BF0
:10419000002BBFF64BAD0023C5F10109059347E5A0
:1041A0005046FCF74BF932463B4604F0CFF8002866
:1041B0007FF421AD0AF1FF3A1DE5764B0493049894
:1041C00017B0BDE8F08F4D460B9F0A9E002D0BDD0A
:1041D000059A002A08DDAA421346A8BF2B46A9EB80
:1041E0000309ED1AD31A05930B9BD3B10A9B002B3D
:1041F00000F09F81002F10DD31463A46204600F046
:10420000B9FF5A4601460646204600F00DFF034618
:10421000594620469B4600F0EDFD0B9BDA1B40F013
:1042200089810121204600F0E9FEBAF1000F07461E
:1042300000F39980209B012B40F387810023089392
:104240000120BAF1000F40F09A80059A104410F056
:104250001F0079D0C0F12003042B40F36E83C0F11E
:104260001C000244814405440592B9F1000F05DDAC
:1042700059464A46204600F0C9FF8346059B002B5D
:1042800005DD39461A46204600F0C0FF07460C9B64
:10429000002B40F03381079B002B40F30A810A9BDF
:1042A000002B40F08680069B01330693049D4FF05F
:1042B0000108DDF81C9008E0594600230A22204638
:1042C00000F0A2FD834608F1010839465846FFF781
:1042D00067FBC14500F1300005F8010BECDC03463B
:1042E0004FF0000A594601222046029300F08EFF4B
:1042F0003946834600F0F0FF002815F8012C40F302
:104300007B816B1E049904E0994200F0838113F8CD
:10431000012D392A03F10105F6D001321A70394610
:10432000204600F067FD002E3FF4FFADBAF1000F0C
:1043300005D0B24503D05146204600F05BFD314622
:10434000204600F057FDF0E51C20059B8144034406
:104350000544059389E701257FE4C3F12006029B0C
:1043600003FA06F011E401465246204600F002FF2F
:10437000209B0746012B40F38B81002308933B6968
:1043800007EB8303186900F0E9FDC0F120005CE74A
:104390000000244034DD0008314600230A22204674
:1043A00000F032FD109B0646002B40F3B982CDE9A8
:1043B0000683002D05DD31462A46204600F026FF03
:1043C0000646089B002B40F09981B1460499029B58
:1043D000884603F001024B1E20990B920A430A9271
:1043E000079A1A44089239465846FFF7D9FA3146D7
:1043F0000290584600F070FF4A46824639462046F1
:1044000000F086FF029BC26805463033002A42D185
:1044100001465846079300F05FFF29460590204665
:1044200000F0E8FC059A079B1AB90A99002900F0E8
:104430006082BAF1000F08F10105C0F241812099B4
:1044400041EA0A0A0B9951EA0A0100F03981002A6F
:1044500000F37781089A88F80030424500F07E81A9
:10446000594600230A22204600F0CEFC4E458346E2
:1044700031464FF000034FF00A02204613D000F0FF
:10448000C3FC4946064600230A22204600F0BCFC35
:10449000A8468146A7E701462046059300F0AAFCFE
:1044A0000122059BC5E700F0AFFCA8460646814601
:1044B00099E7209B022B40F38280079B002B7FF41F
:1044C0009BAD39460522204600F09EFC014607467A
:1044D000584600F001FF00287FF78EAD3122049D81
:1044E000069B05F8012B013301333946204606931C
:1044F00000F080FC002E7FF422AF16E539465846C6
:1045000000F0EAFE0028BFF6C6AE594600230A2294
:10451000204600F079FC069B834603F1FF380A9B96
:10452000002B7FF439AF109B002B40F3EF810793F2
:10453000BCE60B9A5946204600F01CFE834670E606
:10454000BA4B04930333FFF7A3BBDDE90212002942
:104550007FF474AEC2F31303002B00F0A480029B1F
:1045600008936DE601230A93219B002B3FDD1E4635
:10457000109307930021172E61647FF7D8AB0122B7
:1045800004235B0003F11400B042114602F1010262
:10459000F7D96164FFF7CBBB01230A93219B069AED
:1045A000134410930133012B1E460793B8BF012615
:1045B000E0E700230A93F1E700230A93D4E70A9B7C
:1045C000002B7FF4F6AE39465846FFF7E9F9069A14
:1045D000049D00F130030132069205F8013B4FF0D3
:1045E000000A7FE6DF1BC0E50227FFF7CDBB0123F2
:1045F00021930793FFF797BB03D1029BDB073FF59E
:1046000080AE6B1E01E013F8012D302A03F1010585
:10461000F9D084E63123069A01320692049A137087
:104620007DE60D9A002A00F0F380059A03F23343E9
:104630001A444D46059299440B9FA0E500F0F28084
:10464000DDE90801069B5D42794B05F00F0203EBA3
:10465000C203D3E9002303F011FC2D11CDE90201BF
:1046600000F0E08000230227724EEA0705D5D6E964
:10467000002303F003FC01231F446D1006F108061C
:10468000F3D1002B3FF499ABCDE90201FFF795BBC5
:10469000029B002B7FF471AEDDE90212C2F313031B
:1046A000002B40F04F81644B1340002B00F0FD8045
:1046B000059B09F101090133059301230893BFE527
:1046C0000699002A01F10101069112DD59460122E5
:1046D0002046059300F09AFD3946834600F0FCFD24
:1046E0000028059B40F3ED80392B00F0D880029B19
:1046F0003133B24688F800304E4610E671682046E5
:1047000000F052FB0546002800F01F81336906F1D6
:104710000C0102339A000C30FDF770F92946012292
:10472000204600F073FD814650E6DDF808B0059C98
:10473000FFF7FBBB079BA9EB030520E500273E46DF
:10474000CCE6069A392B02F10102069200F0A7800E
:104750000133B24688F800304E46E0E5069AB2468C
:10476000013206924E46BDE5DDE9020103F086FB0B
:10477000049BCDE9020183F80080119B012B22D01C
:10478000119B049ACDF838901344994600222B4B84
:104790003046394603F072FB0F460646FBF7B8FE7B
:1047A0008046FBF74BFE02460B4630463946FBF788
:1047B000F7FC08F1300805F8018B4D4506460F4619
:1047C000E4D1DDF838900022DDE902011C4BFBF753
:1047D000E9FC32463B4603F0C3FD00286BD1DDE91E
:1047E000022300201649FBF7DBFC32463B4603F070
:1047F000D5FD00283FF4D8AB00E0154615F8013C84
:104800006A1E302BF9D0129B01330693FFF78DBB44
:10481000149B059AC3F136031A444D4605929944F8
:104820000B9FACE40227FFF7C8BA00BF38DD0008D1
:1048300018BE000808BF00080000F07F00002440F8
:104840000000E03F079B002B3FF482AB109D002D42
:104850007FF7AAABDDE9020100224E4B03F00EFB0D
:10486000CDE90201781CFBF7E9FDDDE9022303F045
:1048700005FB0022484BFBF795FC069AA1F150730B
:10488000013ACDE90E0112920F931195FFF7B8BAD4
:10489000069A0132069231221A70FFF746BB39227E
:1048A000B24688F800204E462BE50893C8E400275E
:1048B0003E46FFF7A1BB129B0133069315F8018C0E
:1048C0002FE47FF416AFDA077FF513AF0CE743460A
:1048D000A0461C46129BDDF838B00133069320E455
:1048E000DDF84490DDF84CA0DDF838B04446FFF721
:1048F0005BBB069A392B02F10102069208F1010511
:10490000CDD0BAF1000F3FF7F2AEF2E6209B022BBA
:1049100002DCCDF8188056E6109BCDE90683CCE585
:10492000209B022BF8DC109BCDF81880079340E504
:10493000129B01330693FFF7F4BB3FF496ACC0F132
:104940003C0002E5029B089319E50246134B40F236
:10495000EA21134801F09AFC0025204665642946A7
:1049600000F022FA049050B90C4B00224FF4D5719C
:104970000B4801F08BFC0B4B0493FFF7E2B84FF0B0
:10498000FF33079310930123049A219522640A931D
:10499000FFF70EBB0000244000001C4048DD00086B
:1049A0005CDD00083CDD0008F8B50C46234F0646E8
:1049B000FDF7EAF8BB68C4F57E615D680F3125F04C
:1049C0000305294421F47F6121F00F01A1F58054F2
:1049D000B4F5805F07DB00213046FDF79FFABB6826
:1049E0002B44984204D03046FDF7D0F80020F8BDA3
:1049F00061423046FDF792FA01300DD0104BBA6893
:104A000019682D1B45F001053046091B55601960DA
:104A1000FDF7BCF80120F8BD00213046FDF77EFA15
:104A2000BA68831A0F2BDEDD064943F001030C68D8
:104A30000349001B53600860D5E700BF3004002025
:104A4000D80900203808002000295ED0F8B50F46AC
:104A50000646FDF799F857F804CC754DA7F1080004
:104A60002CF00103C218A9685468914224F0030491
:104A700000F084801CF0010F546002EB040133D17C
:104A800057F808EC4968A0EB0E00876805F1080CA0
:104A90006745734401F0010160D0D0F80CE0C7F81D
:104AA0000CE0CEF80870002900F08D8043F0010181
:104AB00041601360B3F5007F30D20122DB086C68DF
:104AC000991013448A40224305EBC30155F8334043
:104AD0000839C0E902416A6045F83300E0603046B9
:104AE000BDE8F840FDF752B84968C9070ED4234421
:104AF00005F1080C916843F0010461456BD0D26860
:104B0000CA6091604460C350D4E7704743F001012C
:104B1000B3F5007F47F8041C1360CED35A0A042A69
:104B200046D89A0902F13907FF0002F13801EC1961
:104B3000EA59083C944255D0516821F0030199424A
:104B400002D992689442F7D1D468C0E90224A060E7
:104B5000D0603046BDE8F840FDF718B8002962D1B2
:104B6000D2E90221234443F00104D1608A60446009
:104B7000C3503046BDE8F840FDF708B81CF0010FFF
:104B8000234407D157F8084C001BD0E902122344F4
:104B9000CA609160274A43F00101126841609A425D
:104BA000A8609CD8244B30461968FFF7FDFE96E7B5
:104BB000142A0AD9542A1DD81A0B02F16F07FF00D4
:104BC00002F16E01B3E7234494E702F15C07FF00B2
:104BD00002F15B01ABE7C5E90400C0E902CC446027
:104BE000C3507CE701276B68891007FA01F119436C
:104BF0006960AAE7B2F5AA7F06D8DA0B02F1780756
:104C0000FF0002F1770192E740F254518A4206D840
:104C10009A0C02F17D07FF0002F17C0187E74FF457
:104C20007E777E2183E743F001014160136056E700
:104C3000300400203C080020D4090020F0307047E8
:104C400000487047300900200048704730090020B4
:104C5000830770B4CDB23DD0541E0AB30378AB4283
:104C60001FD0431C05E014F1FF3419D30278AA4287
:104C700017D013F0030F184603F10103F3D1032CEF
:104C800011D84CB30378AB420BD00444431C02E070
:104C90000278AA4205D09C42184603F10103F7D1DD
:104CA000002070BC704702460E02B6B22E4346EAA0
:104CB0000646136810467340A3F1013121EA03034D
:104CC00013F0803F02F10402DCD1043C032C1046B7
:104CD000EFD8D6E71446D2E72046E2E78842F0B4A0
:104CE0000DD98B1883420AD9841832B1224613F8A1
:104CF000014D994202F8014DF9D1F0BC70470F2ADD
:104D00000ED80346541E002AF7D001340C44013B50
:104D100011F8012BA14203F8012FF9D1F0BC704723
:104D200040EA01039B073AD1A2F110073F0901F1C4
:104D3000200606EB071601F1100300F1100453F8EA
:104D4000105C103344F8105C53F81C5C103444F8C9
:104D50001C5C53F8185C44F8185C53F8145CB342BC
:104D600044F8145CEBD17B1C1B0112F00C0F1944AE
:104D700002F00F05034415D00E46043DAD0803EBC9
:104D8000850C1C1F56F8047B44F8047F6445F9D158
:104D90000135AD002B44294402F00302B2E7541E52
:104DA0000346B2E72A46ADE7C36C70B505460C462C
:104DB0004BB153F8240080B1026843F8242000234B
:104DC000C0E9033370BD2122042101F083FA0346B8
:104DD000E8640028EDD1002070BD012101FA04F63D
:104DE000721D2846920001F075FA0028F3D0C0E940
:104DF0000146E4E731B1C36C4A6853F82200086009
:104E000043F82210704700BFF0B54FF0000C0C467D
:104E100005460E6983B001F1140738680CF1010CE6
:104E200081B202FB0133000C190C02FB00109BB293
:104E300003EB0043664547F8043B4FEA1043ECDCC4
:104E40003BB1A268B24207DD04EB86020136536132
:104E50002661204603B0F0BD616828460131019308
:104E6000FFF7A2FF019B0746B8B1226904F10C01CC
:104E7000023292000C300193FCF7C0FDEA6C6168CD
:104E8000019B52F82100206042F821403C4604EB8F
:104E90008602013653612661DBE70246024BB521EB
:104EA000024801F0F3F900BF48DD000890DD00087A
:104EB0002DE9F8431D46264E083386FB0346092D8F
:104EC0004FEAE37390460746C3EB66020C46089E22
:104ED00036DD012300215B009A4201F10101FADC79
:104EE0003846FFF761FF68B30123B8F1090FC0E945
:104EF000043613DC4FF009080A3445450CDDA5EBF8
:104F00000805254414F8013B0146303B0A22384687
:104F1000FFF77AFFA542F5D1BDE8F88304F109094E
:104F20004E46444416F8013B0146303B0A223846BF
:104F3000FFF76AFFB442F5D1A8F108044C44DCE75E
:104F40000021CDE70246034BCE21034801F09EF934
:104F5000398EE33848DD000890DD0008020C1204A9
:104F60000346CAB90304102013F07F4F04BF1B028D
:104F7000083013F0704F04BF1B01043013F0404F92
:104F800004BF9B000230002B05DB13F0804F00F1C3
:104F9000010008BF202070470020E5E703680146B4
:104FA00013F0070207D0DA0720D4980722D55B0850
:104FB0000B600120704798B2B0B910201B0C13F0A1
:104FC000FF0F04BF1B0A08301A0704BF1B09043077
:104FD0009A0704BF9B080230DA0703D45B0800F18C
:104FE000010005D00B6070471046E8E700207047CD
:104FF000202070479B080B600220704710B50C46BC
:105000000121FFF7D1FE024618B10123C0E90434A3
:1050100010BD034B4FF4A071024801F037F900BFF7
:1050200048DD000890DD00082DE9F04F0E69176992
:1050300083B0BE420C46154605DB3A462B46374642
:105040000D4616461C46AB68696807EB06084345E3
:10505000B8BF0131FFF7A8FE009000287FD0009B69
:1050600003F1140A0AEB8809CA4505D25346002108
:1050700043F8041B9945FBD804F1140E0EEB860B84
:1050800005F11403DE4503EB870753D2CDF8048006
:10509000984605E0090C28D1F3450AF1040A47D9DE
:1050A0005EF8041B8EB2002EF4D045465446002311
:1050B00055F8041B20688AB21FFA80FC06FB02C266
:1050C000090C000C06FB0101134401EB13429BB2D7
:1050D00043EA0243AF4244F8043B4FEA1243E7D8A5
:1050E00023605EF8041C090CD6D0DAF80030404684
:1050F0001A4654464FF0000C0588120C01FB05229D
:105100009BB2944443EA0C4344F8043B50F8043BFC
:1051100022681B0C95B201FB0353874203EB1C432F
:105120004FEA134CE8D8F34523600AF1040AB7D8D4
:10513000DDF80480B8F1000F0BDD59F8043CA9F14B
:1051400004091BB105E059F8043D13B9B8F1010891
:10515000F9D10098C0F8108003B0BDE8F08F024686
:10516000024B40F25D11024801F090F848DD000862
:1051700090DD000812F003032DE9F04114460746C4
:105180002ED10D46A4101CD0BE6C96B3E3074FF091
:10519000000806D4641014D03068A8B10646E307AE
:1051A000F8D5324629463846FFF73EFFB5B16A6862
:1051B000FB6C641053F82210296043F82250054616
:1051C000EAD12846BDE8F081324631463846FFF73D
:1051D0002BFF3060C0F800800646E0E70546D9E7BF
:1051E000094A013B52F823200023FFF70DFE054634
:1051F000C8E740F271213846FFF700FF0023B8648A
:1052000006460360C2E700BF08BE00082DE9F84368
:105210000E694FEA62198B684E44741C9C420D461D
:1052200090460746496804DD5B009C4201F101019C
:10523000FADC3846FFF7B8FD002842D0B9F1000F7C
:1052400000F1140C0EDD6346002109F105094FEA57
:10525000890900EB090243F8041B9342FBD1A9F131
:105260001409CC44296905F1140318F01F0803EB55
:10527000810E1DD00022C8F12009196801FA08F139
:1052800011434CF8041B53F8042B734522FA09F21E
:10529000F3D3002A18BF2646CCF80020FB6C6A68BE
:1052A000066153F82210296043F82250BDE8F883C4
:1052B000ACF1040C53F8042B9E454CF8042FF9D89C
:1052C000ECE70246024B40F2D911024800F0DEFF43
:1052D00048DD000890DD000830B40B690546006920
:1052E000C01A10D19B001435143119442B4401E02D
:1052F0009D4208D253F8044D51F8042D9442F7D042
:1053000003D24FF0FF3030BC7047012030BC7047F3
:105310002DE9F04716460F6912690D46BF1A002F96
:105320006AD1920001F1140C06F114010CEB020396
:10533000114401E09C4562D253F8042D51F8044D0C
:10534000A242F7D053D36968FFF72EFD002860D042
:10535000D5F810C03369143506F11402C76005EBA7
:105360008C0E02EB830800F11407002100E03746A1
:105370003E4655F8049B52F8044B1FFA89F30B4440
:105380001FFA84FA210CA3EB0A03C1EB194101EBCC
:1053900023419BB243EA014390454FEA214146F83D
:1053A000043B2C46E3D8AE4516D9324654F8047B6C
:1053B000BBB20B44191401EB17419BB243EA014302
:1053C000A64542F8043B4FEA2141EFD80EF1FF37E2
:1053D0007F1B27F0030737442BB957F8043D0CF126
:1053E000FF3C002BF9D0C0F810C0BDE8F0872B4679
:1053F000012735461E46A6E7F9DB0027A3E7002173
:10540000FFF7D2FC60B101220023C0E90423BDE80C
:10541000F0870246064B4FF41071064800F036FF45
:105420000246034B40F23221024800F02FFF00BF3A
:1054300048DD000890DD00080E4B0B40A3F15073CF
:10544000002B02DD0020194670475B421B15132B11
:1054500005DC4FF40022002042FA03F17047143BB0
:105460001E2BD6BF4FF00042012322FA03F3002186
:10547000184670470000F07F2DE9F041076900F100
:10548000140606EB870757F8048C4046FFF766FDC5
:10549000C0F120030A280B60A7F1040230DD964218
:1054A000A0F10B031DD257F8080C23B3C3F1200160
:1054B00020FA01F208FA03F848EA0208A7F1080204
:1054C00048F07F55964200FA03F045F4401503D2A8
:1054D00057F80C3CCB401843044629462046BDE80B
:1054E000F0813BB108FA03F343F07F5545F44015D2
:1054F0000020F1E7184648F07F5545F44015EBE7EA
:1055000096422CBF002257F8082CC0F10B0328FA52
:1055100003F138BFDA4000F1150341F07F5508FA76
:1055200003F345F4401543EA020420462946BDE84A
:10553000F08100BF70B5012182B016461C46FFF70E
:1055400033FC054600284CD02346C4F30A54C3F369
:1055500013030CB143F48013002E019322D068464C
:105560000096FFF71BFD002837D0019BC0F12002F9
:10557000009903FA02F20A43C34001936A61002BC7
:1055800014BF02210121AB612961B4B1069BA4F2D1
:10559000334404441C60079BC0F135001860284662
:1055A00002B070BD01A8FFF7F9FC0123019A19466A
:1055B0002030C5E90432002CE8D1069A05EB8103BE
:1055C000A0F2324010601869FFF7C8FC079BC0EBDF
:1055D00041101860284602B070BDDDE900236A6101
:1055E000CDE70246024B40F20A31024800F04EFE7F
:1055F00048DD000890DD00082DE9F04383B00F4638
:1056000069460646FFF738FF04460D46384601A9AD
:10561000FFF732FF36693A698946DDE90013B61AA9
:10562000CB1A03EB4613002B80460BDD05EB03572B
:105630003D4642464B462046294602F049FD03B00E
:10564000BDE8F083C3EB033309EB03518946F0E770
:105650001728D0B504460ADD002000260749084F68
:1056600032463B4602F00AFC013CF9D1D0BD054B65
:1056700003EBC004D4E90401D0BD00BF0000F03F3B
:105680000000244008BE000870B414694E1E02F1E8
:105690001403761103EB840101368B4200EB86067E
:1056A0000CD2041F53F8045B994244F8045FF9D804
:1056B0008B1A153B23F0030304331844864204D9A4
:1056C000002340F8043B8642FBD870BC704700BF03
:1056D00003694A11934210B400F114040FDA04EB89
:1056E00083039C421CD253F8040C043B18B114E011
:1056F00053F8042D8AB99C42FAD310BC704704EBCE
:105700008203EEDD11F01F01EBD054F8220020FAE5
:1057100001F202FA01F18842E3D0012010BC704787
:105720000020EAE72DE9F04F936883B09046002B04
:105730006DD0176882460C46086808378D6843E0CC
:10574000A38913F4906F2ED0D4E9041505EB450519
:10575000A0EB010B05EBD5750BEB06006D100130CE
:10576000A8422A4684BF05462A465B0536D511461F
:105770005046FBF79FFE00283AD05A462169019017
:10578000FCF73CF9A289019B22F4906242F080026E
:10579000A281A5EB0B0203EB0B006561B346354616
:1057A00023612060A2605A464946FFF797FAD8F86D
:1057B0000830A2682068551B58449E1BA5602060D5
:1057C000C8F808601EB3083757E90296AB46002EAA
:1057D000F9D0AE42B4D23546B346E4E75046FCF7C2
:1057E000DFF903460028D4D121695046FFF72CF990
:1057F0000C2300224FF0FF30CAF80030A38943F099
:105800004003A381C8E9012203B0BDE8F08F002066
:10581000C8F8040003B0BDE8F08F00BF2DE9F04FD9
:10582000ABB00C4604918989934609060393059011
:1058300003D52369002B00F0B2840023CDE90E3399
:105840000DF1680A08930193CDF834A09BF800305D
:10585000002B00F0BF80252B00F078845D4603E02C
:10586000252B00F0A98025466B786C1C002BF7D106
:10587000B4EB0B0600F0AE80DDE90E3201333244AA
:10588000072BCAE900B6CDE90E3200F39A800AF17F
:10589000080A019A6B7832440192002B00F09A803A
:1058A00000214FF00003084689460F464FF0FF38AD
:1058B0008DF82F30637804F1010B0BF1010BA3F18C
:1058C0002002582A00F27482DFE812F0E10072022E
:1058D0007202DC00720272027202720272027202C0
:1058E000CF00CA007202C500AC007202A700980087
:1058F00098009800980098009800980098009800E8
:1059000072027202720272027202720272027202F7
:105910007202720244027202720272027202720215
:1059200072027202720272027202670072027202E4
:10593000720272027202590072027202E501720270
:1059400072027202720272027202720272027202B7
:1059500072026C013F017202720272023A013F014F
:10596000720272022D01720231026900FA012801ED
:105970007202080172025B0072027202E90047F0D3
:105980001007B906039B40F10682073323F0070393
:10599000F3E8024503930123A0E147F0100717F055
:1059A000200300F0EE81039B073323F00703F3E8A5
:1059B00002450393002391E1B4EB0B063FF470AF73
:1059C0005AE70DAADDE90410FFF7ACFE48B90DF166
:1059D000680A5EE70F9B23B105980DAA0499FFF7AB
:1059E000A1FE049B9B8913F0400F019B18BF4FF051
:1059F000FF33019301982BB0BDE8F08F4FF0000901
:105A0000A3F130021BF8013B09EB890902EB4909BC
:105A1000A3F13002092AF5D951E747F080079BF836
:105A200000304AE75C4614F8013B2A2B00F014844E
:105A3000A3F13002092AA3464FF000083FF63FAF1A
:105A40001BF8013B08EB880802EB4808A3F1300281
:105A5000092AF5D933E79BF8003047F004072CE713
:105A60009BF8003001212B2027E7039A9BF8003098
:105A700052F8049BB9F1000F0392BFF61EAFC9F1B3
:105A80000009EAE747F001079BF8003015E79BF8AB
:105A9000003000287FF411AF012120200DE70029FC
:105AA00040F0C983C04ABE060892039A40F1FC80C8
:105AB000073222F00702F2E802450392F90740F1AB
:105AC000878154EA050200F0838130228DF831305D
:105AD00047F002078DF830200223FFE04FF000036B
